:020000040000FA
:10000000C00220206D01000071010000730100009A
:1000100000000000000000000000000000000000E0
:10002000000000000000000000000000750100005A
:1000300000000000000000007701000079010000CE
:100040007B0100007B0100007B0100007B010000C0
:100050007B0100007B0100007B0100007B010000B0
:10006000000000007B0100007B0100000000000098
:10007000000000007B0100007B010000FD2100006A
:100080007B0100007B0100007B0100007B01000080
:100090007B0100007B010000000000000000000068
:1000A0007B0100007B010000000000000000000058
:1000B0007B010000000000007B0100007B010000CC
:1000C00000F002F800F042F812A030C808382418F6
:1000D0002D18AC4201D100F039F80FCCA246AB4646
:1000E0000CA730CF2D1B083F3F197C427F1E544484
:1000F0002D090426F441641EAC4201D300F026F819
:100100000126334200D0FB1A3343984754465D46DC
:10011000DFE70000FC6C00000C6D00000000000038
:100120007047000000000000002300240025002686
:10013000103A01D378C1FBD8520700D330C100D5A3
:100140000B6070471FB51FBD10B510BD00F05FF903
:100150001146FFF7F7FF02F097FA00F077F903B4C2
:10016000FFF7F2FF03BC02F077F8000006480047F3
:10017000FEE7FEE7FEE7FEE7FEE7FEE70348044989
:10018000024A044B70470000C1000000C00120205B
:10019000C0022020C001202010B5044603E002F078
:1001A000A3F8401C08D020780549641C0028F6D12B
:1001B0000A2002F099F810BD0020C04310BD0000D5
:1001C000E4002020002203098B4273D3030A8B42F0
:1001D00058D3030B8B423CD3030C8B4221D312E048
:1001E00003460B437FD4002243088B4274D3030998
:1001F0008B425FD3030A8B4244D3030B8B4228D339
:10020000030C8B420DD30902FF2212BA030C8B425E
:1002100002D31212090265D0030B8B4219D300E0FE
:10022000090AC30B8B4201D3CB03C01A5241830B83
:100230008B4201D38B03C01A5241430B8B4201D333
:100240004B03C01A5241030B8B4201D30B03C01A5C
:100250005241C30A8B4201D3CB02C01A5241830AD6
:100260008B4201D38B02C01A5241430A8B4201D305
:100270004B02C01A5241030A8B4201D30B02C01A2F
:100280005241CDD2C3098B4201D3CB01C01A524196
:1002900083098B4201D38B01C01A524143098B421F
:1002A00001D34B01C01A524103098B4201D30B0108
:1002B000C01A5241C3088B4201D3CB00C01A52412D
:1002C00083088B4201D38B00C01A524143088B42F2
:1002D00001D34B00C01A5241411A00D2014652418B
:1002E000104670475DE0CA0F00D04942031000D3AA
:1002F000404253409C46002203098B422DD3030AFF
:100300008B4212D38901FC2212BA030A8B420CD30E
:10031000890192118B4208D3890192118B4204D337
:1003200089013AD0921100E08909C3098B4201D3B7
:10033000CB01C01A524183098B4201D38B01C01AF1
:10034000524143098B4201D34B01C01A5241030968
:100350008B4201D30B01C01A5241C3088B4201D317
:10036000CB00C01A524183088B4201D38B00C01AC4
:100370005241D9D243088B4201D34B00C01A52419B
:10038000411A00D201465241104663465B1001D328
:100390004042002B00D54942704763465B1000D3B2
:1003A000404201B50449002802DC491C084000E035
:1003B0000846C046C04602BDFFFFFF7F704770473A
:1003C000704710B501469E240002CA15A307002AF3
:1003D00002D01843002A04DBA21A002A0CDDD04008
:1003E00010BD1206120E01D140004008A21A03D41B
:1003F000D04040420028F3DDFF2248001206904220
:1004000001D9002010BDC817C043584010BD754623
:1004100000F024F8AE46050069465346C008C00007
:10042000854618B020B5FFF7A9FE60BCB646002689
:100430000027C0C5C0C5C0C5C0C5C0C5C0C5C0C5F2
:10044000C0C5403D490849008D46704710B5044677
:10045000C046C0462046FFF782FE10BD00487047E8
:1004600000002020811E091F00BFFCD27047000041
:10047000B0B51122120283580124A34383500B8884
:100480008C781C438B882343094C1C408358094DAE
:100490001D40631983508B79CC791C43097A214321
:1004A0007E231940801842689A4351184160B0BDBC
:1004B00018670000E798FDFF10B5012212038318AA
:1004C0000C789C604978815010BD0000F0B587B071
:1004D0000591064610460C380221C84105280693AE
:1004E0000AD81D49095C43001C4CE75A80001CA334
:1004F00018580490069B01E00027049718780028FC
:1005000027D00D9C03940C9C0294CDB20024D1B250
:10051000019105E0F619641CE0B2185C002818D0BF
:1005200020385E28F6D80095684304994118CAB26D
:10053000080CC0B2090AC9B2EE4B01F0E7FE0398FD
:100540000090B0B20599019A029B00F015F8069B45
:10055000E0E707B0F0BDC0464A2D0000502D000076
:1005600000C41D0080E51D0000000000D0221E0018
:1005700000000000D0991E00F0B583B000930C3A43
:100580000223DA4100231D46052A00D9BAE0920071
:1005900002A4A2582C462E469746C046B505000038
:1005A000C5050000D5050000BD050000D50500000B
:1005B000CD0500000C230A261A240AE0182314266D
:1005C0004A2406E010230C26222402E020231926C8
:1005D0008224012502968219521E92B2CB185B1E0C
:1005E0009BB200F0A7FB002D00D189E0032C00D8BE
:1005F000032408980190A71EBE48841C002630469C
:1006000004E028467F1E641C002F79D00546A057C1
:100610000028009800D4019801F070FC681CC0B25A
:100620000299FFF7CFFD00293046EBD02078400635
:10063000019800D5009801F061FCA81CC0B2029995
:10064000FFF7C0FD00293046DCD0207880060198F5
:1006500000D5009801F052FCE81CC0B20299FFF7E7
:10066000B1FD00293046CDD02078C006019800D5D4
:10067000009801F043FC281DC0B20299FFF7A2FDCB
:1006800000293046BED020780007019800D5009898
:1006900001F034FC681DC0B20299FFF793FD0029F8
:1006A0003046AFD020784007019800D5009801F07F
:1006B00025FCA81DC0B20299FFF784FD0029304631
:1006C000A0D020788007019800D5009801F016FC92
:1006D000E81DC0B20299FFF775FD0029304691D0A0
:1006E0002078C007019800D00098083501F006FC7A
:1006F000E8B20299FFF766FD002982D10D4680E736
:1007000003B0F0BD2C462E4664E7C046F0B583B07A
:100710000093D21F00231C46192A00D9E6E092005C
:1007200002A5AA58264625469746C04695070000CA
:10073000A9070000C1070000C1070000C1070000B1
:100740009B070000C1070000C1070000C1070000AF
:10075000AF070000C1070000C1070000C10700008B
:10076000C1070000C1070000C1070000C107000069
:10077000B9070000C1070000C1070000C107000061
:10078000C1070000C1070000C1070000C107000049
:10079000A1070000072605250BE00C26062508E02A
:1007A0002023102540260AE00826072501E0102610
:1007B00008250124334603E018230C2530260124A4
:1007C00002954219521E92B2CB185B1E9BB200F0EA
:1007D000B1FA002C00D187E0012E00D8012608983C
:1007E00001900024ED4D204604E03846761E6D1C35
:1007F000002E79D0074628570028009800D4019889
:1008000001F07CFB781CC0B20299FFF7DBFC0029E9
:100810002046EBD028784006019800D5009801F0DA
:100820006DFBB81CC0B20299FFF7CCFC0029204632
:10083000DCD028788006019800D5009801F05EFB96
:10084000F81CC0B20299FFF7BDFC00292046CDD0AC
:100850002878C006019800D5009801F04FFB381D9C
:10086000C0B20299FFF7AEFC00292046BED028781E
:100870000007019800D5009801F040FB781DC0B238
:100880000299FFF79FFC00292046AFD02878400747
:10089000019800D5009801F031FBB81DC0B2029953
:1008A000FFF790FC00292046A0D028788007019807
:1008B00000D5009801F022FBF81DC0B20299FFF7A5
:1008C00081FC0029204691D02878C007019800D0EB
:1008D0000098083701F012FBF8B20299FFF772FC9A
:1008E000002982D10F4680E703B0F0BD2646254699
:1008F00066E7C04660002020F0B587B00591064647
:10090000D01F00270697192800D981E0800001A197
:1009100009588F467D09000095090000AD090000C7
:10092000AD090000AD09000085090000AD09000017
:10093000AD090000AD0900009D090000AD090000EF
:10094000AD090000AD090000AD090000AD090000CF
:10095000AD090000AD090000A5090000AD090000C7
:10096000AD090000AD090000AD090000AD090000AF
:10097000AD090000AD0900008D0900000627082020
:10098000294912E006270C2025490EE010274020B7
:1009900020490AE007270820224906E008271020FE
:1009A0001E4902E00C2730201B49069119780029C6
:1009B0002CD00D9C04940C9C0394C0B20290002592
:1009C000D0B2019005E0F6196D1CE8B2195C00295F
:1009D0001CD020395E29F6D8029800904143069831
:1009E0000918CAB2080CC0B2090AC9B23C461F466F
:1009F000CF4B01F08BFC04980090B0B20599019A9E
:100A0000039BFFF783FE3B462746DCE707B0F0BDBC
:100A1000CCE7C046505A1E0000FF1D0080D71D00C5
:100A200000BE1D0080E21D0080DF1D00F0B583B018
:100A3000009302920C3A0223DA4100231C46052A55
:100A400000D9A9E02646C0467A441279520097445C
:100A500002080E050E0B0C23182607E01823482663
:100A600004E01023202601E0202380260124C21860
:100A7000521E92B2CB185B1E9BB200F05BF9002CA9
:100A800000D187E0012E00D80126089801900024AB
:100A9000A74D204604E03846761E6D1C002E79D006
:100AA000074628570028009800D4019801F026FA3C
:100AB000781CC0B20299FFF785FB00292046EBD0D5
:100AC00028784006019800D5009801F017FAB81C64
:100AD000C0B20299FFF776FB00292046DCD02878C7
:100AE0008006019800D5009801F008FAF81CC0B201
:100AF0000299FFF767FB00292046CDD02878C00671
:100B0000019800D5009801F0F9F9381DC0B202999A
:100B1000FFF758FB00292046BED02878000701982F
:100B200000D5009801F0EAF9781DC0B20299FFF7EC
:100B300049FB00292046AFD028784007019800D50E
:100B4000009801F0DBF9B81DC0B20299FFF73AFB3B
:100B500000292046A0D028788007019800D5009869
:100B600001F0CCF9F81DC0B20299FFF72BFB002968
:100B7000204691D02878C007019800D00098083707
:100B800001F0BCF9F8B20299FFF71CFB002982D1F1
:100B90000F4680E703B0F0BD264668E760002020DE
:100BA000F0B589B007910746089210460C3802212B
:100BB000C841052809D82749095C420026A4A45A3F
:100BC000800028A21058069001E0002406941878AE
:100BD00000283CD00F9A05920E9A0492C9B2039154
:100BE000002619460293039D1FE000955E234343B0
:100BF00098184018684306994118CAB2080CC0B248
:100C0000090AC9B24A4B01F081FB05980090B8B2BD
:100C10000799089A049BFFF709FF029B3F19B01C34
:100C2000C6B2985D9919002811D00246A13A082A47
:100C300004D84978A029124AD7D8EFE70246B03A3B
:100C4000472AEBD84978A1290C4ACED2E6E709B069
:100C5000F0BDC046442D00000C001000000018003C
:100C60000000200000000000D0C9020000000000C9
:100C7000908106000000000000DF0E000DC2FFFFA3
:100C800041C4FFFFF0B587B00591064610460C3809
:100C90000221C841052806930AD81D49095C430072
:100CA0001C4CE75A80001CA318580490069B01E0D6
:100CB000002704971878002827D00D9C03940C9CDB
:100CC0000294CDB20024D1B2019105E0F619641C62
:100CD000E0B2185C002818D020385E28F6D80095BD
:100CE000684304994118CAB2080CC0B2090AC9B2D3
:100CF0000F4B01F00BFB03980090B0B20599019ADD
:100D0000029BFFF739FC069BE0E707B0F0BDC04649
:100D10004A2D0000502D0000C0CD1D0040F21D00E6
:100D200000000000903E1E000000000090CA1E005F
:100D300060002020F0B585B002930092019101215E
:100D40000A04374F3A6013460392CA033A6004928A
:100D500080263E600D033D603C46103C26603E60B0
:100D60003D6026603E60256026603E603D602660F6
:100D70003E60256026603E603D6026603E602560E6
:100D800026603E603D6026602260236001F0B6F878
:100D9000009801F0B3F803983860049939603E6018
:100DA0003D6026603E603D6026603E6025602660B6
:100DB0003E603D6026603E60256026603E603D608E
:100DC00026603E60256026603E60256026602160CA
:100DD0002060019801F092F8029801F08FF80398D2
:100DE0003860049939603E603D6026603E603D6039
:100DF00026603E60256026603E603D6026603E6065
:100E0000256026603E60256026603E603D6026606D
:100E10003E603D6026602160206005B0F0BDC046A8
:100E2000A0120A40F0B583B01C4615460E46511E6E
:100E30008AB2591E8BB202903146FFF77BFF0194B4
:100E4000A64212D2089C04E0761CB0B201998842F6
:100E50000BD20298A842F7D2029F204601F04EF82A
:100E60007F1CB8B2A842F8D3EEE703B0F0BD000093
:100E7000F0B583B00127B8040290FC4D28606424CB
:100E8000204601F00DFA2E46103E029830602046B2
:100E900001F006FA78033060204601F001FA3804C8
:100EA000286001460190F8032860029080242C609D
:100EB0003F032F6034602C602F6034602C602F6003
:100EC00034602C60376034602C602F6034602C609C
:100ED0002F6034602C602F6034602C603760346089
:100EE00030603160782001F0DBF9019828600299C8
:100EF00029602C602F6034602C602F6034602C607F
:100F0000376034602C60376034602C602F60346050
:100F10002C60376034602C60376034602C602F6048
:100F200034603160306029602C602F6034602C6048
:100F30002F6034602C602F6034602C602F60346030
:100F40002C602F6034602C602F6034602C602F6028
:100F500034602C602F6034603160286029602C6020
:100F60002F6034602C602F6034602C6037603460F8
:100F70002C60376034602C60376034602C602F60E8
:100F800034602C60376034602C602F6034603160D6
:100F9000306029602C602F6034602C602F603460DA
:100FA0002C602F6034602C602F6034602C602F60C8
:100FB00034602C60376034602C602F6034602C60AB
:100FC000376034603160286029602C60376034609D
:100FD0002C602F6034602C60376034602C60376088
:100FE00034602C602F6034602C602F6034602C6083
:100FF000376034602C602F6034603160306029606D
:101000002C602F6034602C602F6034602C602F6067
:1010100034602C602F6034602C60376034602C604A
:10102000376034602C602F6034602C602F60346037
:10103000316029602C602F6034602C602F60346038
:101040002C602F6034602C602F6034602C6037601F
:1010500034602C60376034602C602F6034602C600A
:101060002F603460316029602C602F6034602C6008
:101070002F6034602C602F6034602C602F603460EF
:101080002C602F6034602C602F6034602C602F60E7
:1010900034602C602F603460316029602C602F60D8
:1010A00034602C602F6034602C60376034602C60BA
:1010B000376034602C602F6034602C602F603460A7
:1010C0002C60376034602C60376034603160296098
:1010D0002C602F6034602C602F6034602C6037608F
:1010E00034602C60376034602C602F6034602C607A
:1010F0002F6034602C60376034602C60376034605F
:101100003160286029602C60376034602C602F606B
:1011100034602C60376034602C60376034602C6041
:101120002F6034602C60376034602C60376034602E
:101130002C60376034603160306029602C602F6033
:1011400034602C602F6034602C60376034602C6019
:10115000376034602C602F6034602C6037603460FE
:101160002C602F6034602C60376034603160286000
:1011700029602C60376034602C602F6034602C60F4
:10118000376034602C60376034602C6037603460C6
:101190002C602F6034602C60376034602C603760C6
:1011A00034603160306029602C602F6034602C60C6
:1011B0002F6034602C60376034602C60376034609E
:1011C0002C602F6034602C60376034602C60376096
:1011D00034602C60376034603160286029602C6096
:1011E000376034602C60376034602C602F6034606E
:1011F0002C602F6034602C602F6034602C602F6076
:1012000034602C602F6034602C602F60346031605B
:10121000306029602C602F6034602C602F60346057
:101220002C60376034602C602F6034602C60376035
:1012300034602C60376034602C602F6034602C6028
:101240002F6034603160286029602C603760346022
:101250002C60376034602C602F6034602C602F600D
:1012600034602C602F6034602C6001E0A0120A40D2
:101270002F6034602C60376034602C602F603460E5
:101280003160306029602C602F6034602C602F60EA
:1012900034602C602F6034602C602F6034602C60D0
:1012A0002F6034602C602F6034602C602F603460BD
:1012B0002C60376034603160286029602C603760B2
:1012C00034602C60376034602C602F6034602C6098
:1012D0002F6034602C602F6034602C602F6034608D
:1012E0002C60376034602C6037603460316030606F
:1012F00029602C602F6034602C602F6034602C607B
:101300002F6034602C60376034602C602F60346054
:101310002C602F6034602C60376034602C602F604C
:1013200034603160286029602C60376034602C6044
:10133000376034602C602F6034602C602F60346024
:101340002C602F6034602C60376034602C602F601C
:1013500034602C602F6034603160306029602C6014
:101360002F6034602C602F6034602C6037603460F4
:101370002C602F6034602C602F6034602C602F60F4
:1013800034602C602F6034602C602F6034603160DA
:10139000286029602C60376034602C6037603460CE
:1013A0002C602F6034602C602F6034602C602F60C4
:1013B00034602C60376034602C60376034602C609F
:1013C0002F6034603160306029602C602F603460A1
:1013D0002C602F6034602C602F6034602C602F6094
:1013E00034602C60376034602C60376034602C606F
:1013F000376034602C603760346031602860296069
:101400002C60376034602C60376034602C602F6053
:1014100034602C60376034602C602F6034602C6046
:101420002F6034602C602F6034602C602F6034603B
:101430003160306029602C60376034602C602F6030
:1014400034602C60376034602C602F6034602C6016
:101450002F6034602C60376034602C602F60346003
:101460002C602F603460316029602C6037603460FC
:101470002C602F6034602C60376034602C602F60EB
:1014800034602C602F6034602C602F6034602C60DE
:101490002F6034602C6037603460316028602960D0
:1014A0002C60376034602C60376034602C603760AB
:1014B00034602C602F6034602C602F6034602C60AE
:1014C0002F6034602C602F6034602C602F6034609B
:1014D0003160306029602C60376034602C60376088
:1014E00034602C602F6034602C60376034602C6076
:1014F0002F6034602C602F6034602C602F6034606B
:101500002C602F603460316029602C602F60346063
:101510002C602F6034602C602F6034602C602F6052
:1015200034602C602F6034602C60376034602C6035
:101530002F6034602C602F603460316029602C6033
:101540002F6034602C602F6034602C602F6034601A
:101550002C602F6034602C60376034602C60376002
:1015600034602C602F6034602C60376034603160F0
:1015700029602C602F6034602C602F6034602C60F8
:101580002F6034602C60376034602C602F603460D2
:101590002C602F6034602C602F6034602C603760CA
:1015A0003460316029602C602F6034602C602F60C3
:1015B00034602C602F6034602C60376034602C60A5
:1015C0002F6034602C602F6034602C603760346092
:1015D0002C6037603460316029602C602F6034608B
:1015E0002C602F6034602C60376034602C602F607A
:1015F00034602C60376034602C602F6034602C6065
:10160000376034602C6037603460316029602C6052
:101610002F6034602C602F6034602C603760346041
:101620002C60376034602C60376034602C60376029
:1016300034602C60376034602C6037603460316017
:1016400029602C602F6034602C60376034602C601F
:101650002F6034602C60376034602C602F60346001
:101660002C60376034602C602F6034602C602F60F9
:101670003460316029602C602F6034602C603760EA
:1016800034602C602F6034602C602F6034602C60DC
:10169000376034602C60376034602C602F603460B9
:1016A0002C602F603460316029602C602F603460C2
:1016B0002C602F6034602C602F6034602C603760A9
:1016C00034602C60376034602C602F6034602C6094
:1016D0002F6034602C602F603460316029602C6092
:1016E0002F6034602C602F6034602C602F60346079
:1016F0002C602F6034602C60376034602C60376061
:1017000034602C602F6034602C603760346031604E
:1017100029602C602F6034602C602F6034602C6056
:101720002F6034602C602F6034602C603760346030
:101730002C602F6034602C60376034602C60376020
:101740003460316029602C602F6034602C602F6021
:1017500034602C602F6034602C60376034602C6003
:10176000376034602C60376034602C6037603460E0
:101770002C6037603460316029602C602F603460E9
:101780002C602F6034602C60376034602C602F60D8
:1017900034602C602F6034602C602F6034602C60CB
:1017A000376034602C6037603460316028602960B5
:1017B0002C60376034602C60376034602C60376098
:1017C00034602C602F6034602C602F6034602C609B
:1017D0002F6034602C602F6034602C603760346080
:1017E0003160306029602C60376034602C60376075
:1017F00034602C602F6034602C60376034602C6063
:101800002F6034602C602F6034602C602F60346057
:101810002C602F603460316029602C602F60346050
:101820002C602F6034602C602F6034602C602F603F
:1018300034602C602F6034602C60376034602C6022
:101840002F6034602C602F603460316029602C6020
:101850002F6034602C602F6034602C602F60346007
:101860002C602F6034602C60376034602C603760EF
:1018700034602C602F6034602C602F6034603160E5
:1018800029602C602F6034602C602F6034602C60E5
:101890002F6034602C60376034602C602F603460BF
:1018A0002C602F6034602C602F6034602C603760B7
:1018B0003460316029602C602F6034602C602F60B0
:1018C00034602C602F6034602C60376034602C6092
:1018D0002F6034602C602F6034602C60376034607F
:1018E0002C6037603460316029602C602F60346078
:1018F0002C602F6034602C60376034602C602F6067
:1019000034602C60376034602C60376034602C6049
:101910002F6034602C602F603460316029602C604F
:101920002F6034602C602F6034602C60376034602E
:101930002C60376034602C60376034602C60376016
:1019400034602C60376034602C6037603460316004
:1019500029602C602F6034602C60376034602C600C
:101960002F6034602C602F6034602C602F603460F6
:101970002C60376034602C602F6034602C602F60E6
:101980003460316029602C602F6034602C603760D7
:1019900034602C602F6034602C60376034602C60C1
:1019A0002F6034602C602F6034602C602F603460B6
:1019B0002C6037603460316029602C602F603460A7
:1019C0002C602F6034602C60376034602C602F6096
:1019D00034602C60376034602C60376034602C6079
:1019E000376034602C6037603460316029602C606F
:1019F0002F6034602C602F6034602C602F60346066
:101A00002C60376034602C60376034602C60376045
:101A100034602C60376034602C6037603460316033
:101A200029602C602F6034602C602F6034602C6043
:101A30002F6034602C60376034602C603760346015
:101A40002C60376034602C60376034602C60376005
:101A50003460316029602C602F6034602C602F600E
:101A600034602C60376034602C602F6034602C60F0
:101A70002F6034602C602F6034602C602F603460E5
:101A80002C602F603460316029602C602F603460DE
:101A90002C602F6034602C60376034602C602F60C5
:101AA00034602C602F6034602C602F6034602C60B8
:101AB000376034602C6037603460316028602960A2
:101AC0002C602F6034602C602F6034602C60376095
:101AD00034602C602F6034602C602F6034602C6088
:101AE0002F6034602C602F6034602C60376034606D
:101AF00031603060286029602C602F6034602C6079
:101B00002F6034602C60376034602C602F6034604C
:101B10002C60376034602C602F6034602C602F6044
:101B200034602C60376034603160306003B0F0BDE9
:101B3000F0B58BB006931646119C0A19521E93B24B
:101B400065084219521E92B207900591FFF7F2F80C
:101B50000A9568072209002800D0521C62436ED003
:101B60000C3CA001E1B289084018C3B2052B66D82D
:101B70000120099098402B21084260D012980890CB
:101B800010980490203EF0B200900024079F264653
:101B90000292019309E00598401C0590079F039C61
:101BA000641C02988442019B49D0032B03940CD0FF
:101BB000012B06D0002B0DD10C200099484323495E
:101BC0000BE000980001204907E0302000994843CD
:101BD0001C4902E0009880011D4908180019057889
:101BE00000240BE000F08AF9761CF0B20A99FEF7A7
:101BF000E9FA002921D0641C082CD0D00998A04013
:101C000028400899002913D0002809D0B8B20599B6
:101C100089B202460B46FFF78DF8069800F06EF980
:101C20007F1CB8B20799401A0A998842E3D1B2E7FB
:101C300000280498D6D00698D4E70026AFE70BB06A
:101C4000F0BDC046C0370000D03100005C2D000060
:101C500090490000F0B58DB00C93002B7DD00C4660
:101C60000546149E13980890129807903C49104618
:101C700001F010F8FEF7A5FB049009967008069095
:101C800000260A9405952CE00020089900910999F6
:101C90000191029006984443059908190C4680B2B8
:101CA0002E220A99079BFFF743FF2346089A099CB7
:101CB0007F1C0C97069F0A99761C002000920194C5
:101CC000029030200543EAB2F0B27843C01880B2E7
:101CD000079BFFF72DFF0C98C0B2761CF1B2814232
:101CE0003BD2F0430C990818010607D00C99891BC8
:101CF000891EC9B2032903D201210BE0012117E09B
:101D0000FC22024000230121504F79431B1DDCB20D
:101D10009442FAD1032210400AD0012801D10A20AE
:101D200005E0022802D07D20C00000E0642041438D
:101D3000F4B20C9FF8B20B90049800F0AFFE0A21A9
:101D4000FEF740FA0D460B98801EA0429CD00A99DF
:101D5000059B099C089A069FAFE70DB0F0BDC046F1
:101D60000000C842F0B58FB00BAC07C4002B6BD09D
:101D70001C4616981599099114990891991E049179
:101D80000A9040080790581E069000272F4D0E9786
:101D9000059316E001200E900020099A00920A9AFD
:101DA0000192029030200143CAB2079847430B9832
:101DB000C01980B20C99089BFFF7BAFEA6423746BD
:101DC00042D07E1CF0B2844201D1012120E0F843D0
:101DD00020180499C91BC9B2032901D2012108E0C6
:101DE000FC2202400023012169431B1DDCB2944206
:101DF000FAD103221040059C0AD0012801D10A2003
:101E000005E0022802D07D20C00000E064204143AC
:101E10000D9800F043FE0A21FEF7D4F90E98002831
:101E2000BAD10698B842B7DD0029B3D1002109988C
:101E300000900A9801900E910291079847430B98E1
:101E4000C01980B22022B5E70FB0F0BD1027000006
:101E5000F0B583B01C4615468218521E92B2CB18BC
:101E60005B1E9BB2FEF766FF0295002D1ED0089800
:101E7000009000273E46019405E0761CB0B202991E
:101E80008842019C12D2002CF7D0E0197900009A08
:101E9000551884B2287800F0B1F8687800F0AEF8F0
:101EA000AD1C7F1CB8B28442F4D1E6E703B0F0BDAC
:101EB000F0B587B01478002C1ED00F4606460E9859
:101EC00006900D980C9D0495551C059040080390B4
:101ED000049800900598019006980290B0B2E2B282
:101EE00039461C46FFF724FE234603983618681C23
:101EF0002C78002C0546EBD107B0F0BDF0B50125DC
:101F0000E903774A11618023136106B21446103445
:101F1000002E264600DA16462D0335601360136145
:101F2000060A7706274600D517463D601360136101
:101F3000B706274600D517463D6013601361F706C4
:101F4000274600D517463D601360136137072746C3
:101F500000D517463D60136013617707274600D50B
:101F600017463D6013601361B707274600D5174633
:101F70003D6013601361F607264600D016463560B3
:101F8000136011601161136146B2002E264600DA1B
:101F900016463560136013614606264600D5164680
:101FA0003560136013618606264600D516463560F7
:101FB00013601361C606264600D5164635601360C9
:101FC00013610607264600D5164635601360136177
:101FD0004607264600D5164635601360136186070E
:101FE000264600D51646356013601361C00700D041
:101FF0001446256013601160F0BDC04670B5012520
:10200000E903374A11618023136146B21446103444
:10201000002E264600DA16462D0335601360136144
:102020004606264600D516463560136013618606BF
:10203000264600D51646356013601361C60626464F
:1020400000D516463560136013610607264600D595
:1020500016463560136013614607264600D51646BE
:102060003560136013618607264600D51646356035
:1020700013601361C00700D014462560136011601F
:1020800070BDC04613480146483982220A600146A5
:102090004439114A0A600246643A812111600246BD
:1020A000143A11604160021F11600C4A026002681C
:1020B00002600246083A116002460C3A116010387C
:1020C0000160072040030649086106480860064889
:1020D000086470479C8042408200040081000C002C
:1020E00090120A408010050080F005000C48002185
:1020F00001600320C1430B480246083A13680B40B5
:1021000013600168012291430160110203688B434F
:1021100003601103001F02680A4302607047C04653
:1021200008030B4008010B400548042101601F21F2
:10213000416000218160016805220A430260704706
:1021400010E000E010B5144C14492046FEF7B4F935
:1021500013492046FEF78CF90321CA03114803688E
:10216000934303600269104B13401A3303614269C1
:102170000A433C218A43426141680122114043687D
:102180009343591841609102084B1C680C431C6032
:1021900001681143016010BD00801040D06D000047
:1021A000D26D0000009110400000FFFF2890104009
:1021B00080B500F009F8FFF765FFFFF797FFFFF71D
:1021C000C1FFFFF7B1FF80BD80B5074807494160F7
:1021D000074A5160074B5960074901601160196057
:1021E0001020FEF73FF980BD00080A40030000B14F
:1021F00000280A40008810400100002610B512484F
:102200000068C0B20B281ED13F48C1690F4A13882D
:102210007E2B13D813885C1C14800D4AD15402689D
:10222000D20708D00268D20705D00268D20702D0D0
:102230000268D207F3D1C9B2816101E000201080A9
:1022400004480121017010BD20901040BA012020E7
:1022500038012020B80120207047000080B5FFF72A
:10226000A7FF0120C003044908600449086004A0D6
:10227000FDF792FF80BDC04680E200E000E100E093
:10228000426F61726420496E6974205B5B202A2A68
:10229000204C434B4642202A2A205D5D0D00000061
:1022A000B0B57D21090241430E480368262206E0AD
:1022B000E41A051F2D686419A2188A4210D21C4620
:1022C0000368A34208D10368A34205D10368A3426F
:1022D00002D10368A342F3D09C42E9D9E41AEBE7A8
:1022E000B0BDC04618E000E007490A68D20708D030
:1022F0000A68D20705D00A68D20702D00A68D20756
:10230000F3D1C2B28A61704708911040F0B58BB02A
:1023100009930124A303DA4D00932B6080262E60DD
:10232000019424032C602F46103F3E602E602C60E9
:102330003E602E602C603E602E602C603E602E6001
:102340002C603E602E602C603E602E603C603E60E3
:102350002E603C603E602E6043B2002B2B4600DABC
:102360003B461C603E602E6043062B4600D53B4634
:102370001C603E602E6083062B4600D53B461C60E9
:102380003E602E60C3062B4600D53B461C603E6077
:102390002E6003072B4600D53B461C603E602E6036
:1023A00043072B4600D53B461C603E602E608307EA
:1023B0002B4600D53B461C603E602E60C007284679
:1023C00000D0384604603E602E6048B2002828469F
:1023D00000DA384604603E602E604806284600D584
:1023E000384604603E602E608806284600D5384690
:1023F00004603E602E60C806284600D5384604605A
:102400003E602E600807284600D5384604603E60CE
:102410002E604807284600D5384604603E602E608E
:102420008807284600D5384604603E602E60C807FD
:10243000284600D0384604603E602E6050B2002826
:10244000284600DA384604603E602E605006284672
:1024500000D5384604603E602E609006284600D5C0
:10246000384604603E602E60D006284600D53846C7
:1024700004603E602E601007284600D53846046090
:102480003E602E605007284600D5384604603E6006
:102490002E609007284600D5384604603E602E60C6
:1024A000D007284600D0384604603E60109802905D
:1024B000002800D1DFE00198029A10400190714994
:1024C000012A01D1002291E0FE20029A02400292EC
:1024D00000220A922E600A682F46103F3E602E604E
:1024E000086805903E602E600C683E602E600868AB
:1024F00003903E602E60086804903E602E6008687D
:1025000006903E602E60086807903E602E60086866
:1025100008903E60200C02242040130C2340059AB2
:102520009203D20FD21892008018039A9203D20F0E
:1025300010188000049A120C22401018069A920378
:10254000D20F10188000079A120C22401018089A17
:102550009203D20F10180A9A099B98542E600868AB
:1025600005903E602E60086804903E602E6008680A
:102570003E602E600B683E602E600A6803923E60EB
:102580002E600A6806923E602E600A6807923E60DE
:102590002E600A6808923E60000C2040059A120CDA
:1025A0002240049FBF03FF0FBA18920080189A03BD
:1025B000D20F10188000039A120C22401018069AAD
:1025C0009203D20F10188000079A120C22401018A4
:1025D000089A9203D20F10180A9A099B9A18507001
:1025E0000A9A921C0298904200D072E70198002843
:1025F00041D02E6008680A902B46103B1E602E606A
:10260000086806901E602E6008681E602E600C68C8
:102610001E602E600F6805971E602E600F6807977A
:102620001E602E600F6808971E602E6009681E608D
:10263000000C0226304017460A9A120C3240069BC4
:102640009B03DB0F9A1892008018A203D20F101878
:102650008000059A120C32401018079A9203D20F8C
:1026600010188000089A120C324010188903C90F04
:1026700008180999C855103D009828600BB0F0BDA6
:10268000A0120A4080130A4090B0FFF7E7FDFEF762
:10269000EFFBD24800900020F0220F900146134635
:1026A000FEF7C0FB1F20C00205907D20C0000990EE
:1026B0001021CA48009001910E460F9802902827D9
:1026C0003946C7A2059D2B46FFF7F2FB0095C3488C
:1026D0000190029634460C963020F0220D9203238E
:1026E0000A933946FFF73EFBBC48009001960F9EC7
:1026F000029650200E903946BB4A2B46FFF7D8FB76
:102700000095B6480190029480200B9039460D9AAE
:102710000A9BFFF727FBB14800A951C10E98394623
:10272000B14A2B462E46FFF7C3FBAC4800900194FC
:102730000F980290462529460A95ACA23346FFF72A
:10274000B7FB0096A5480190029404230B982946F4
:102750000F9C2246FFF77EFAA94D00957826204669
:1027600031463A463B46FFF773FB00953846314603
:102770003A463B46FFF76CFB00950E9831463A46C9
:102780003B46FFF765FB0095304631463A463B46EF
:10279000FFF75EFB0095A024204631460B963A4693
:1027A0003B46FFF755FB0095C825284631463A467B
:1027B0003B46FFF74DFB924E00960F9821463A4656
:1027C0003B46FFF745FB0096384621463A463B46D6
:1027D000FFF73EFB00960E9821463A463B46FFF730
:1027E00037FB00960B9821463A463B46FFF730FBF5
:1027F0000096204621463A463B46FFF729FB0096C5
:102800002846214608943A463B46FFF721FB0096AE
:102810000F9829463A463B46FFF71AFB0096384682
:1028200029463A463B46FFF713FB00960E98294689
:102830003A463B46FFF70CFB00960B9829463A4672
:102840003B46FFF705FB0096204629463A463B46A5
:10285000FFF7FEFA0096284629463A463B46FFF720
:10286000F7FA0998FFF71CFD5C4F00970F9D28466B
:1028700029460D9A1346FEF7D5FA059C0094019758
:102880000F210491072228465EA3FEF735F8009435
:1028900001971921082228465DA3FEF72DF8009420
:1028A000019723210C22069228465CA3FEF724F808
:1028B000009401973221039128460C9E32465AA378
:1028C000FEF71AF8009401971822079228460A99F1
:1028D00058A3FEF711F800940197642120220A9270
:1028E000284657A3FEF708F800940197912128463F
:1028F000069F3A4655A3FEF753F9009437480190D6
:1029000028460899324655A3FEF74AF90094334EFB
:102910000196B3212846079A54A3FEF741F9009483
:102920000196CC2128460A9A54A3FEF739F9099852
:10293000FFF7B6FC0096284629460D9A1346FEF787
:1029400071FA00940196284604993A464F4BFEF7D7
:1029500099F90094214E01961E2128460C9A4C4B61
:10296000FEF790F90094019628460399079F3A468E
:10297000484BFEF787F90094019628460E990A9A6B
:10298000454BFEF77FF90094019628460B99069A6D
:102990003E4BFDF79BFD009401968C2128460C9A36
:1029A0003B4BFDF793FD00940196284608993A4663
:1029B000384BFDF78BFD00940196BE2128460A9AFC
:1029C000354BFDF783FD0998FFF76AFC0096284612
:1029D00029460D9A1346FEF725FA69E6FFFF000027
:1029E0004C43445F573A0000FF6D0000496E63722C
:1029F00065617365696E67204E756E3A0000000070
:102A00005061000041534349495F35783700000069
:102A100041534349495F37783800000041534349E7
:102A2000495F36783132000041534349495F387875
:102A30003136000041534349495F31327832340026
:102A400041534349495F313678333200C6C1C4BB74
:102A5000A3B1A3B2A3F8A3B1A3B20000C6C1C4BB83
:102A6000A3B1A3B6A3F8A3B1A3B60000C6C1C4BB6B
:102A7000A3B2A3B4A3F8A3B2A3B40000C6C1C4BB5D
:102A8000A3B3A3B2A3F8A3B300000000DC6D000061
:102A9000F36D0000E76D0000066E000043088B42F6
:102AA0001AD3002203098B4279D3030A8B425ED3E7
:102AB000030B8B4242D3030C8B4227D30902FF2224
:102AC00012BA030C8B4202D31212090203D0030B79
:102AD0008B4233D31AE0D3E0411A8041401C704747
:102AE00003460B4371D443088B42F5D300220309FC
:102AF0008B4254D3030A8B4239D3030B8B421DD331
:102B0000030C8B4202D394466EE0090AC30B8B423E
:102B100001D3CB03C01A5241830B8B4201D38B03E9
:102B2000C01A5241430B8B4201D34B03C01A52418E
:102B3000030B8B4201D30B03C01A5241C30A8B42D1
:102B400001D3CB02C01A5241830A8B4201D38B02BC
:102B5000C01A5241430A8B4201D34B02C01A524160
:102B6000030A8B4201D30B02C01A5241CDD2C309D2
:102B70008B4201D3CB01C01A524183098B4201D34E
:102B80008B01C01A524143098B4201D34B01C01A39
:102B9000524103098B4201D30B01C01A5241C308B1
:102BA0008B4201D3CB00C01A524183088B4201D320
:102BB0008B00C01A524143088B4201D34B00C01A0C
:102BC0005241411A524110007047CA0F00D0494289
:102BD000031000D34042534000229C4603098B421D
:102BE0002DD3030A8B4212D38901FC2212BA030AA5
:102BF0008B420CD3890192118B4208D38901921127
:102C00008B4204D3890137D0921100E08909C309AE
:102C10008B4201D3CB01C01A524183098B4201D3AD
:102C20008B01C01A524143098B4201D34B01C01A98
:102C3000524103098B4201D30B01C01A5241C30810
:102C40008B4201D3CB00C01A524183088B4201D37F
:102C50008B00C01A5241D9D243088B4201D34B009A
:102C6000C01A5241411A00D20146524110466346F1
:102C70005B1000D34042704763465B1000D3404274
:102C800001B50021004201D0C9430846C046C046F4
:102C900002BD000070B5420064414B005C41120E61
:102CA00039D01B0E38D0FF2A3CD0FF2B3AD0D21897
:102CB0007F3A40024902400A490A4518ED010600E0
:102CC0004E43000A090A48430104731A4019190CBB
:102CD0004318990F04D05B08012149075B1A521C65
:102CE000D80904D3401CF50301D19D0607D0FF2A63
:102CF00008D2D50506D0E4072043401970BD012550
:102D0000A843F4E7002A01DCE00770BD2402FF209D
:102D10002043C00570BD1B0EFF2A03D0FF2B01D03E
:102D2000E00770BDFF2636064500B54206D84D00C7
:102D3000B54203D8D218FF2A00D0E7E7004870BD9B
:102D40000000C07F1820004800801A22004A00823C
:102D50000A000C0000001400000019000000000030
:102D6000000000000000000000000404040404004F
:102D70000004000014140A0000000000000000001D
:102D800000000A0A1F0A0A1F0A0A000000040E15A2
:102D900005060C14150E0400000012150D152E2C3E
:102DA0002A1200000000040A0A3615152916000030
:102DB00002020100000000000000000010080804EA
:102DC00004040404080810000204040808080808A1
:102DD0000404020000000004150E0E15040000009B
:102DE00000000008083E0808000000000000000085
:102DF000000000000202010000000000003F00008F
:102E000000000000000000000000000000020000C0
:102E100000201010080804040202010000000E1136
:102E200011111111110E0000000004060404040425
:102E3000040E000000000E1111080402011F000022
:102E400000000E11100C1010110E00000000080CF4
:102E50000C0A091F081C000000001F01010F1110BF
:102E6000110E000000000C12010D1311110E0000D4
:102E700000001E10080804040404000000000E11E5
:102E8000110E1111110E000000000E111119161073
:102E9000090600000000000004000000000400001B
:102EA00000000000000400000004040000001008FE
:102EB0000402020408100000000000003F003F0070
:102EC00000000000000002040810100804020000C6
:102ED00000000E11110804040004000000001C2270
:102EE000292D2D1D221C0000000004040C0A0A1EBE
:102EF0001233000000000F12120E1212120F000007
:102F000000001E1101010101110E000000000F124E
:102F100012121212120F000000001F120A0E0A02F3
:102F2000121F000000001F120A0E0A020207000012
:102F300000001C1201013911120C000000003312B4
:102F4000121E12121233000000001F0404040404B5
:102F5000041F000000003E080808080808080907C8
:102F6000000037120A060A1212370000000007029A
:102F700002020202223F000000003B1B1B1B151532
:102F80001535000000003B1216161A1A1217000021
:102F900000000E1111111111110E000000000F128E
:102FA000120E02020207000000000E11111111178B
:102FB000190E180000000F12120E0A12123700002C
:102FC00000001E1101060810110F000000001F155F
:102FD00004040404040E0000000033121212121242
:102FE000120C000000003312120A0A0C0404000044
:102FF0000000151515150E0A0A0A000000001B0A2C
:103000000A04040A0A1B000000001B0A0A0A04043E
:10301000040E000000001F0908040402121F000033
:103020001C0404040404040404041C00000202043C
:1030300004040808081010000E080808080808080A
:1030400008080E00040A0000000000000000000054
:1030500000000000000000000000003F020400002B
:10306000000000000000000000000000000C121C26
:10307000123C000000030202020E1212120E0000A7
:1030800000000000001C1202120C000000181010BA
:10309000101C1212123C000000000000000C121E56
:1030A000021C000000182404041E0404041E000076
:1030B00000000000003C120C021C221C0003020253
:1030C000020E12121237000000040400000604046D
:1030D000040E000000080800000C08080808080793
:1030E00000030202021A0A060A1300000007040481
:1030F00004040404041F000000000000000F151564
:103100001515000000000000000F12121237000019
:1031100000000000000C1212120C00000000000061
:10312000000F1212120E020700000000001C121203
:10313000121C103800000000001B060202070000ED
:1031400000000000001E020C101E00000000000421
:10315000041E0404041C000000000000001B1212E6
:10316000123C000000000000001B0A0A04040000DA
:10317000000000000015150E0A0A00000000000003
:10318000001B0A040A1B000000000000003312129A
:103190000C08040300000000001E0804041E0000C8
:1031A00018080808080C0808080818000808080883
:1031B00008080808080808080604040404080404A9
:1031C00004040600160900000000000000000000D2
:1031D00000000000000000000000000000000000EF
:1031E0000000000808080808080800001818000077
:1031F00000486C24120000000000000000000000E5
:103200000000002424247F1212127F1212120000E8
:103210000000081C2A2A0A0C1828282A2A1C080838
:1032200000000022251515152A5854545422000078
:103230000000000C1212120A76252911916E00006E
:10324000000606040300000000000000000000006B
:10325000004020101008080808080810102040003E
:1032600000020408081010101010100808040200D2
:103270000000000008086B1C1C6B08080000000020
:1032800000000000080808087F080808080000007F
:10329000000000000000000000000000060604031B
:1032A0000000000000000000FE0000000000000020
:1032B0000000000000000000000000000606000002
:1032C0000000804040202010100808040402020082
:1032D00000000018244242424242424224180000A8
:1032E000000000080E08080808080808083E00004A
:1032F0000000003C4242422020100804427E0000B0
:103300000000003C4242201820404042221C0000A5
:10331000000000203028242422227E202078000073
:103320000000007E0202021A26404042221C0000D9
:10333000000000382402021A2642424224180000EB
:103340000000007E2222101008080808080800006B
:103350000000003C4242422418244242423C000009
:10336000000000182442424264584040241C0000DF
:1033700000000000000018180000000018180000ED
:103380000000000000000008000000000008080421
:103390000000004020100804020408102040000033
:1033A0000000000000007F0000007F00000000001F
:1033B0000000000204081020402010080402000051
:1033C0000000003C42424640201010001818000047
:1033D0000000001C225A555555552D42221C000054
:1033E0000000000808181414243C224242E70000A0
:1033F0000000001F2222221E22424242221F000001
:103400000000007C4242010101010142221C000037
:103410000000001F2242424242424242221F00005C
:103420000000003F4212121E12120242423F0000F0
:103430000000003F4212121E121202020207000098
:103440000000003C2222010101712122221C000007
:10345000000000E7424242427E42424242E7000010
:103460000000003E0808080808080808083E000098
:103470000000007C10101010101010101010110F10
:103480000000007722120A0E0A1212222277000090
:10349000000000070202020202020202427F000054
:1034A00000000077363636362A2A2A2A2A6B000090
:1034B000000000E346464A4A525252626247000008
:1034C0000000001C2241414141414141221C0000B9
:1034D0000000003F424242423E0202020207000058
:1034E0000000001C2241414141414D53321C60000B
:1034F0000000003F4242423E1212222242C7000018
:103500000000007C4242020418204042423E00007B
:103510000000007F4908080808080808081C000087
:10352000000000E74242424242424242423C000026
:10353000000000E742422224241414180808000066
:103540000000006B494949495555362222220000A6
:10355000000000E7422424181818242442E7000041
:10356000000000772222141408080808081C000034
:103570000000007E2120101008040442423F000099
:1035800000780808080808080808080808087800EB
:103590000000020204040808081010202020404007
:1035A000001E1010101010101010101010101E001F
:1035B000003844000000000000000000000000008F
:1035C000000000000000000000000000000000FFFC
:1035D00000060800000000000000000000000000DD
:1035E000000000000000003C4278444242FC000021
:1035F000000000030202021A26424242261A00007C
:1036000000000000000000384402020244380000BC
:1036100000000060404040784442424264D80000CC
:10362000000000000000003C427E0202423C00001C
:10363000000000F08808087E08080808083E00001E
:10364000000000000000007C22221C023C42423CA0
:10365000000000030202023A4642424242E70000F2
:103660000000000C0C00000E08080808083E0000CE
:103670000000003030000038202020202020221EB2
:103680000000000302020272120A161222770000E2
:103690000000000E0808080808080808083E000096
:1036A000000000000000007F9292929292B700000A
:1036B000000000000000003B4642424242E700009A
:1036C000000000000000003C42424242423C000038
:1036D000000000000000001B26424242221E02079A
:1036E000000000000000007844424242447840E07C
:1036F00000000000000000774C040404041F0000D8
:10370000000000000000007C42023C40423E0000FD
:10371000000000000008083E080808080830000003
:1037200000000000000000634242424262DC0000F0
:1037300000000000000000E74224241408080000F4
:1037400000000000000000EB49495555222200000E
:10375000000000000000007624181818246E0000F5
:1037600000000000000000E74224241418080807A5
:10377000000000000000007E22100808447E0000C7
:1037800000C0202020202010202020202020C00049
:103790001010101010101010101010101010101029
:1037A00000060808080808100808080808080600A5
:1037B0000C32C20000000000000000000000000009
:1037C00000000000000000000000000000000000F9
:1037D00000000000000000000000000000000000E9
:1037E00000000000000000000000000000000000D9
:1037F0000000000000000000600060006000600049
:1038000060006000600040002000200020000000F8
:103810000000000060006000600000000000000088
:103820000000000060066006300398018800440034
:103830000000000000000000000000000000000088
:103840000000000000000000000000000000000078
:103850000000000000000000100210021002100220
:10386000FE07FE0708020801080108010801FE071B
:10387000FE0704010401040104010000000000002F
:1038800000000000000040004000F00158034C031D
:10389000CC034C0058007000E000C001C0014003A0
:1038A0004C035C034C034801F00040004000000062
:1038B00000000000000000000E010A0191009100CC
:1038C0009100510051003A00AE03A0025004500490
:1038D00048044804480484028403000000000000F7
:1038E000000000000000000038006C006C006C005C
:1038F0006C006C002C0098071C011A013301330185
:103900006301E300C308C6093C0700000000000093
:10391000000000000C001C00100010000800040053
:103920000000000000000000000000000000000097
:103930000000000000000000000000000000000087
:103940000000000000040002000180008000400030
:103950004000200020002000200020002000200047
:1039600040004000800080000001000200040000D0
:1039700000000000020004000800100010002000F9
:103980002000400040004000400040004000400057
:1039900020002000100010000800040002000000B9
:1039A0000000000000000000000000004000C00017
:1039B0004000460C4E0FD001F0015E0F460C400057
:1039C0004000400000000000000000000000000077
:1039D00000000000000000000000000000004000A7
:1039E0004000400040004000FE0F4000400040000A
:1039F0004000400000000000000000000000000047
:103A000000000000000000000000000000000000B6
:103A100000000000000000000000000000000000A6
:103A2000000000000C001C00100010000800040042
:103A30000000000000000000000000000000000086
:103A40000000000000000000FE0700000000000071
:103A50000000000000000000000000000000000066
:103A60000000000000000000000000000000000056
:103A70000000000000000000000000000000000046
:103A8000000000001C001C001C00000000000000E2
:103A90000000000000040006000200030001000115
:103AA00080008000400040006000200020001000E6
:103AB0001000080008000C000400060002000000CE
:103AC00000000000000000000000F00098010C035E
:103AD0000C03060606060606060606060606060683
:103AE00006060C030C039801F00000000000000023
:103AF0000000000000000000000040007C006000AA
:103B000060006000600060006000600060006000B5
:103B10006000600060006000FC0300000000000026
:103B200000000000000000000000F8008401020313
:103B300006030603000300018001C00060002000AE
:103B40001000080204020602FE030000000000004C
:103B5000000000000000000000007800C6008601A0
:103B6000860180018001C000700080010001000317
:103B70000003060306038601F800000000000000B1
:103B80000000000000000000000080018001C00172
:103B9000A001A00190018801880184018201FE0F2B
:103BA0008001800180018001E0070000000000002A
:103BB00000000000000000000000FC0304000400FE
:103BC000040004000400F4008C010403000300035B
:103BD0000603060382018401F800000000000000D3
:103BE00000000000000000000000E00118030C03CA
:103BF0000C0004000600E60116030E060606060683
:103C0000060604060C021803F00000000000000085
:103C100000000000000000000000F8070C0604028D
:103C200004010001000180008000400040004000CD
:103C300060006000600060006000000000000000A4
:103C400000000000000000000000F8010C03060660
:103C5000060606060C021C03F000C8010C0306064B
:103C60000606060606060C03F00100000000000030
:103C700000000000000000000000F0000C010C0338
:103C8000060206060606060606078C0678060006E5
:103C9000000300030C018C0178000000000000000C
:103CA0000000000000000000000000000000000014
:103CB00000000000E000E000E00000000000000064
:103CC00000000000E000E000E00000000000000054
:103CD00000000000000000000000000000000000E4
:103CE0000000000060006000000000000000000014
:103CF0000000000000006000600040002000200084
:103D0000000000000000000000040002000180002C
:103D100040002000100008000400080010002000EF
:103D200040008000000100020004000000000000CC
:103D30000000000000000000000000000000000083
:103D400000000000FE07000000000000FE07000069
:103D50000000000000000000000000000000000063
:103D60000000000000000000040008001000200017
:103D700040008000000100020004000200018000F9
:103D800040002000100008000400000000000000B7
:103D900000000000000000000000E0031806040C12
:103DA000040C0C0C0C0C000780014000400040008B
:103DB00000000000E000E000E00000000000000063
:103DC0000000000000000000E00018030C02CC0519
:103DD00064056605A605B604B604B604B604B602C4
:103DE000E4010C040C021803F000000000000000C5
:103DF00000000000000000000000600060005000B3
:103E0000D00090009000880088010801F8010403A8
:103E100004030402020202060F0F0000000000006B
:103E200000000000000000000000FE008C030C03F6
:103E30000C030C030C038C01FC000C030C020C069D
:103E40000C060C060C060C03FE010000000000002E
:103E500000000000000000000000E00318030C0652
:103E60000C04040406000600060006000600060016
:103E700006040C040C021803F0000000000000000F
:103E8000000000000000000000007F008C010C0317
:103E90000C030C060C060C060C060C060C060C0695
:103EA0000C060C030C038C017F00000000000000D6
:103EB00000000000000000000000FF0306030604ED
:103EC0000604060086008600FE0086008600860046
:103ED0000600060406040602FF03000000000000BE
:103EE00000000000000000000000FF0306030604BD
:103EF0000604060086008600FE0086008600860016
:103F000006000600060006001F000000000000007A
:103F100000000000000000000000F00018010C028A
:103F20000C0204020600060006000600C60F060387
:103F300006030C030C031803F0000000000000004F
:103F4000000000000000000000000F0F060606063B
:103F50000606060606060606FE0706060606060608
:103F600006060606060606060F0F00000000000003
:103F700000000000000000000000FC036000600082
:103F80006000600060006000600060006000600031
:103F90006000600060006000FC03000000000000A2
:103FA00000000000000000000000F807C000C00092
:103FB000C000C000C000C000C000C000C000C00001
:103FC000C000C000C000C000C000C60066003C00C9
:103FD00000000000000000000000CF038601C600C2
:103FE00046002600160036002E006E004600C60071
:103FF00086008601060106038F070000000000000E
:10400000000000000000000000001F000600060085
:104010000600060006000600060006000600060070
:104020000600060406040602FF030000000000006C
:104030000000000000000000000007078603860360
:104040008E038E034E034E034A035A035A033A0368
:10405000320332033203120387070000000000001E
:10406000000000000000000000008E0F0C021C0287
:104070001C0234023402640264024402C402840258
:1040800084038403040304031F02000000000000F3
:1040900000000000000000000000F00098010C0388
:1040A0000C020606060606060606060606060606AE
:1040B00006060C020C039801F0000000000000004E
:1040C00000000000000000000000FF0006030606DC
:1040D00006060606060606068603FE00060006001D
:1040E00006000600060006001F0000000000000099
:1040F00000000000000000000000F00098010C0328
:104100000C0206060606060606060606060606064D
:1041100076064C02CC039801F000800700030000F3
:1041200000000000000000000000FF01060306067A
:104130000606060606060603FE004600C6008600C2
:1041400086010603060306060F0E000000000000AD
:1041500000000000000000000000F8020C0306024E
:10416000060206000E003C00F800E0038003000792
:104170000206020606060C03F00100000000000023
:1041800000000000000000000000FE07620461085B
:104190006108600060006000600060006000600016
:1041A0006000600060006000F80100000000000096
:1041B000000000000000000000001E070C020C02BE
:1041C0000C020C020C020C020C020C020C020C027F
:1041D0000C020C020C021801F000000000000000AC
:1041E000000000000000000000000F0706020401AC
:1041F00004010C010C018800880098009800500010
:10420000500070003000200020000000000000007E
:1042100000000000000000000000F70E62044204ED
:104220004604460464026402E402E4029C029C0127
:1042300098019801880188008800000000000000B3
:10424000000000000000000000009E070C010801B3
:1042500018019000B0006000200060006000D000F5
:1042600090008801080104038E0700000000000090
:10427000000000000000000000000F0F0604040210
:104280000C0208011801B800B00070006000600066
:104290006000600060006000F801000000000000A5
:1042A00000000000000000000000FC070C020603F4
:1042B000020180018000400040002000200010002A
:1042C000180008040C040402FE03000000000000B3
:1042D00000000000E003200020002000200020005B
:1042E00020002000200020002000200020002000CE
:1042F000200020002000200020002000E00300001B
:104300000000000000000000040004000800080095
:104310001000100010002000200040004000C000ED
:104320008000800000010001000200020002000481
:10433000000000007C0040004000400040004000C1
:10434000400040004000400040004000400040006D
:104350004000400040004000400040007C00000061
:104360000000600090000801000000000000000054
:10437000000000000000000000000000000000003D
:10438000000000000000000000000000000000002D
:10439000000000000000000000000000000000001D
:1043A000000000000000000000000000000000000D
:1043B0000000000000000000000000000000FF0FEF
:1043C0000000000018006000000000000000000075
:1043D00000000000000000000000000000000000DD
:1043E00000000000000000000000000000000000CD
:1043F00000000000000000000000000000000000BD
:1044000000000000F0010C030C030003E0031C0398
:104410000E03060306038E0B7C0E00000000000056
:10442000000000000000000008000E000C000C005E
:104430000C000C00CC013C031C060C060C060C0600
:104440000C060C060C021C03E40100000000000036
:10445000000000000000000000000000000000005C
:1044600000000000F0008C018C01860106000600AF
:10447000060006020C020C01F00000000000000023
:1044800000000000000000000002C0030003000361
:104490000003000378038C030C03060306030603E2
:1044A0000603060304038C077801000000000000E7
:1044B00000000000000000000000000000000000FC
:1044C00000000000E001180308020C060C06FC07BF
:1044D0000C000C0018041802E001000000000000AD
:1044E00000000000000000000000C003600630066D
:1044F00030003000FE01300030003000300030006D
:104500003000300030003000FC01000000000000EE
:10451000000000000000000000000000000000009B
:1045200000000000F007D8068C018C018C01980176
:10453000F8000C00FC00CC03060306038E03F80011
:10454000000000000000000008000E000C000C003D
:104550000C000C00EC011C030C030C030C030C03FB
:104560000C030C030C030C039E070000000000006A
:10457000000000000000000000006000600000007B
:10458000000040007C00600060006000600060008F
:104590006000600060006000FC030000000000009C
:1045A00000000000000000000000C001C001000089
:1045B00000000001F0018001800180018001800184
:1045C000800180018001800180018001CC007C009D
:1045D000000000000000000008000E000C000C00AD
:1045E0000C000C008C038C008C004C006C005C00F8
:1045F0008C008C010C010C039E07000000000000E1
:10460000000000000000000040007C00600060002E
:10461000600060006000600060006000600060009A
:104620006000600060006000FC030000000000000B
:10463000000000000000000000000000000000007A
:10464000000000003707EE06660666066606660688
:104650006606660666066606FF0F0000000000009C
:10466000000000000000000000000000000000004A
:1046700000000000EE011C030C030C030C030C03F0
:104680000C030C030C030C039E0700000000000049
:10469000000000000000000000000000000000001A
:1046A00000000000F00098010C030606060606064E
:1046B000060606060C030C03F000000000000000D4
:1046C00000000000000000000000000000000000EA
:1046D00000000000EE011C030C060C060C060C0684
:1046E0000C060C060C031C03EC010C000C003E0035
:1046F00000000000000000000000000000000000BA
:104700000000000078028C030C0306030603060376
:104710000603060304038C03780300030003C007A9
:104720000000000000000000000000000000000089
:10473000000000009F0358063806180018001800F3
:104740001800180018001800FF000000000000000A
:104750000000000000000000000000000000000059
:1047600000000000F0031C030C020C023800F000F3
:10477000C003040304038C03FC01000000000000DC
:1047800000000000000000000000000020002000E9
:1047900030003000FE0130003000300030003000CA
:1047A0003000300030023002E00100000000000064
:1047B00000000000000000000000000000000000F9
:1047C000000008028E030C030C030C030C030C0303
:1047D0000C030C030C039C07780100000000000090
:1047E00000000000000000000000000000000000C9
:1047F000000000001E070C020801080118019000CB
:10480000B000B00060006000200000000000000068
:104810000000000000000000000000000000000098
:1048200000000000F70E6204460464026402EC0219
:104830009C01980198019801080000000000000008
:104840000000000000000000000000000000000068
:1048500000000000BC0718011001B00060006000FB
:10486000E0009000080108039E070000000000001F
:104870000000000000000000000000000000000038
:10488000000000009E070801080108019000900048
:10489000B0006000600060002000200024001C00C8
:1048A0000000000000000000000000000000000008
:1048B00000000000FC018401C400440060002000EE
:1048C0003000180208020C03FC0100000000000088
:1048D0000000000000038000800080008000800055
:1048E00080008000800040002000400080008000A8
:1048F00080008000800080008000800000030000B5
:1049000040004000400040004000400040004000A7
:104910004000400040004000400040004000400097
:104920004000400040004000400040004000400087
:10493000000000000C00100010001000100010001B
:104940001000100010002000400020001000100097
:104950001000100010001000100010000C000000EB
:1049600000001C002204C2048003000000000000BC
:104970000000000000000000000000000000000037
:104980000000000000000000000000000000000027
:104990000000000000000000000000000000000017
:1049A0000000000000000000000000000000000007
:1049B00000000000000000000000000000000000F7
:1049C00000000000000000000000000000000000E7
:1049D00000000000000000000000C001C001C00194
:1049E000C001C001C001C0018000800080008000C3
:1049F00080008000800000000000000000008001B6
:104A0000C003C0038001000000000000000000009F
:104A1000000000000000E01CE01CF01E700E3807D3
:104A200018030801840000000000000000000000DE
:104A30000000000000000000000000000000000076
:104A40000000000000000000000000000000000066
:104A500000000000000000000000000020102010F6
:104A6000201020102010FE7FFE7F10081008100874
:104A70001008100810081008FE7FFE7F08040804C4
:104A80000804080408040000000000000000000002
:104A9000000000000000000000010001C0076019D4
:104AA000103118311839183938017001E001C0038C
:104AB0008007000F001D003900311C311C310C3102
:104AC0000C11180DE00700010001000100000000BA
:104AD0000000000000000000000000001C1036185C
:104AE0006308630C63046304630263026301361D9D
:104AF0009C3780228063406340632063206330637F
:104B000010221836081C0000000000000000000001
:104B1000000000000000000000000000F00098010C
:104B20008C018C018C018C018C00CC007800183E2B
:104B30001C083608320863046304C304C3038343B8
:104B400006438E26781C00000000000000000000D4
:104B50000000000000001C003C003C003000300061
:104B600010000C0006000000000000000000000023
:104B70000000000000000000000000000000000035
:104B80000000000000000000000000000000000025
:104B90000000000000000040002000100008000C91
:104BA000000400060003000300038001800180016F
:104BB0008001800180018001800100030003000367
:104BC00000060006000C0008001000200040000055
:104BD0000000000000000200040008001000300087
:104BE00020006000C000C000C00080018001800182
:104BF00080018001800180018001C000C000C000F0
:104C00006000600030001000080004000200000096
:104C10000000000000000000000000000000000094
:104C200000018003800300011C713C79783DC007BE
:104C30000001C007783D3C791C71000180038003AE
:104C400080010000000000000000000000000000E3
:104C50000000000000000000000000000000000054
:104C6000000000010001000100010001000100013D
:104C7000FC7F0001000100010001000100010001B2
:104C80000000000000000000000000000000000024
:104C90000000000000000000000000000000000014
:104CA0000000000000000000000000000000000004
:104CB00000000000000000000000000000000000F4
:104CC0001C003C003C003000300010000C000600CE
:104CD00000000000000000000000000000000000D4
:104CE00000000000000000000000000000000000C4
:104CF000FE7F000000000000000000000000000037
:104D000000000000000000000000000000000000A3
:104D10000000000000000000000000000000000093
:104D20000000000000000000000000000000000083
:104D3000000000000000000000000000000018005B
:104D40003C003C00180000000000000000000000D3
:104D50000000000000000040006000200030001053
:104D600000180008000C0004000600020003000107
:104D700080018000C0004000600020003000100072
:104D8000180008000C0004000600020000000000EB
:104D9000000000000000000000000000C007600CE0
:104DA00030181830183018200C600C600C600C6043
:104DB0000C600C600C600C600C601820183018300F
:104DC0003018600CC0070000000000000000000068
:104DD0000000000000000000000000000001800151
:104DE000F801800180018001800180018001800143
:104DF00080018001800180018001800180018001AB
:104E00008001C003F81F0000000000000000000047
:104E1000000000000000000000000000E007101C7F
:104E20000818043004300C300C3000300018000832
:104E30000004000200018000400020201020082013
:104E40000430FC1FFC1F00000000000000000000F8
:104E5000000000000000000000000000E003180E49
:104E60000C0C0C180C180C180018000C0006C003D1
:104E7000000E00180010003000300C300C300C1008
:104E80000C18180CE00300000000000000000000F7
:104E9000000000000000000000000000000C000EF8
:104EA000000E000F800E800E400E600E200E100EC1
:104EB000100E080E040E040EFE7F000E000E000EF3
:104EC000000E000E000EC07F000000000000000079
:104ED000000000000000000000000000F03FF03F74
:104EE00010001000100008000800C807280C18184F
:104EF000081000300030003000300C300C30041846
:104F00000418080CF003000000000000000000007E
:104F1000000000000000000000000000800FC01032
:104F2000203010301800180008000C008C0F6C188E
:104F30003C301C600C600C600C600C601860182029
:104F400030306018C00700000000000000000000C2
:104F5000000000000000000000000000F83FF83FE3
:104F60001C100C08040804040004000200020001E4
:104F700000010001800080008000C000C000C0006F
:104F8000C000C000C00000000000000000000000E1
:104F9000000000000000000000000000E007300CEE
:104FA00018180C300C300C301C3038187008E00722
:104FB000B007180E0C1C06380630063006300630D6
:104FC0000C18180CE00300000000000000000000B6
:104FD000000000000000000000000000E0031804D2
:104FE0000C080C180610063006300630063006385D
:104FF0000C3C1836F03100300018001800180C0C6A
:105000000C060C03F001000000000000000000008E
:105010000000000000000000000000000000000090
:10502000000000000000000000008001C003C00379
:10503000800100000000000000000000000080016E
:10504000C003C00380010000000000000000000059
:105050000000000000000000000000000000000050
:1050600000000000000000000000C000C0000000C0
:105070000000000000000000000000000000000030
:105080000000C000C0008000800040004000000020
:1050900000000000000000000000002000100008D8
:1050A0000004000600038001C0006000300018000A
:1050B0000C00180030006000C000800100030006F2
:1050C00000040008001000200000000000000000A4
:1050D00000000000000000000000000000000000D0
:1050E00000000000000000000000FE7F0000000043
:1050F000000000000000FE7F000000000000000033
:10510000000000000000000000000000000000009F
:105110000000000000000000000004000800100073
:1051200020006000C000800100030006000C001891
:1051300000300018000C000600038001C000600071
:105140002000100008000400000000000000000023
:1051500000000000000000000000C0073018083008
:1051600008600C601C601C601C600030001C0006A5
:1051700000018000800080008000000000008001AD
:10518000C003C00380010000000000000000000018
:10519000000000000000000000000000C0076018D0
:1051A000103018200C2F8C4D864CC64CC64C664CCB
:1051B00066446644662666266615CC1C0C400820AC
:1051C00018303018C0070000000000000000000088
:1051D000000000000000000000000001C001C0014C
:1051E000C0014001600320032003200330061006A5
:1051F00010061006F80F080C080C080C0C0C04180C
:10520000041806181F7C00000000000000000000C9
:10521000000000000000000000000000FE07181C55
:10522000183818301830183018301818180CF807BB
:105230001818183018201860186018601860186066
:1052400018301818FE0F00000000000000000000D9
:10525000000000000000000000000000C0276038CF
:10526000103018200C400C40040006000600060018
:10527000060006000600060006000C400C400C204C
:1052800018303018C00700000000000000000000C7
:10529000000000000000000000000000FE03180EE7
:1052A0001818183018301830186018601860186016
:1052B00018601860186018601860183018301810DE
:1052C0001818180EFE030000000000000000000087
:1052D000000000000000000000000000FE3F183049
:1052E000182018601840180018081808180CF80F33
:1052F000180C180818081800180018001840184052
:1053000018201830FE3F00000000000000000000E0
:10531000000000000000000000000000FE7F187088
:10532000184018C018801800181018101818F81F06
:105330001818181018101800180018001800180075
:10534000180018007E0000000000000000000000AF
:10535000000000000000000000000000C013701CEE
:10536000101018100C200C20040006000600060087
:105370000600060006FC063006300C300C301830F3
:1053800018303008C00700000000000000000000D6
:105390000000000000000000000000003F7E0C182C
:1053A0000C180C180C180C180C180C180C180C18DD
:1053B000FC1F0C180C180C180C180C180C180C18D6
:1053C0000C180C183F7E00000000000000000000D8
:1053D000000000000000000000000000F81F800135
:1053E00080018001800180018001800180018001B5
:1053F00080018001800180018001800180018001A5
:1054000080018001F81F0000000000000000000083
:10541000000000000000000000000000E07F000627
:10542000000600060006000600060006000600064C
:10543000000600060006000600060006000600063C
:1054400000060006000600060E060E038E01FC0094
:105450000000000000000000000000007E7C181822
:105460001808180418061802180198019801D801A4
:10547000B803380318071806180E180C181C18184B
:10548000183018307EFC0000000000000000000012
:105490000000000000000000000000007E00180076
:1054A000180018001800180018001800180018003C
:1054B00018001800180018001800180018401840AC
:1054C00018201830FE3F000000000000000000001F
:1054D0000000000000000000000000001FF81C3861
:1054E0001C381C381C3C3434343434343436743274
:1054F0006432643264326431C431C431C431C43082
:10550000C43084309FFC0000000000000000000058
:105510000000000000000000000000001F7C1C10C4
:105520003C103410341074106410E410C410C41112
:1055300084118413041304170416041E041C041C91
:10554000041C04181F1800000000000000000000E8
:10555000000000000000000000000000C003300C4C
:10556000181808100C300C300660066006600660E3
:10557000066006600660066006600C200C300810AD
:105580001818300CC00300000000000000000000EC
:10559000000000000000000000000000FE0F1818CE
:1055A00018301860186018601860186018301818E3
:1055B000F80F18001800180018001800180018003C
:1055C000180018007E00000000000000000000002D
:1055D000000000000000000000000000C003300CCC
:1055E00018180C100C300C2006600660066006606F
:1055F00006600660066006600660E4612C331C32BB
:105600001816300EC007004C007C00380000000067
:10561000000000000000000000000000FE07181C51
:10562000183818301830183018301818180CF807B7
:1056300098031803180718061806180E180C180CEB
:10564000181C18187E780000000000000000000000
:10565000000000000000000000000000E0273038DB
:1056600018300C200C200C000C0018007800E0030F
:10567000800F001E00380070006004600460086045
:1056800018303818C80F00000000000000000000AB
:10569000000000000000000000000000FC3F8C2122
:1056A000846182418241800180018001800180010A
:1056B00080018001800180018001800180018001E2
:1056C00080018001E00700000000000000000000F1
:1056D0000000000000000000000000003F7C0C10F3
:1056E0000C100C100C100C100C100C100C100C10DA
:1056F0000C100C100C100C100C100C100C100C10CA
:1057000008083804E003000000000000000000006A
:105710000000000000000000000000003EF818201B
:105720001820182030103010301030106008600839
:105730006008E00CC004C004C00480038003800340
:1057400080030001000100000000000000000000D4
:10575000000000000000000000000000DFF3866190
:10576000862186218C210C218C238C138C138C1385
:105770004C1358125816580E380E380E380E300C7E
:1057800010041004100400000000000000000000DD
:105790000000000000000000000000007E3E18082D
:1057A00038083004300470026002E001C001C0011A
:1057B000800180034003400720062006100C100CD7
:1057C000081808183E7C00000000000000000000DF
:1057D0000000000000000000000000007E7C1C10A3
:1057E000181018083008300C700460046002C00201
:1057F000C002C00180018001800180018001800120
:1058000080018001E00700000000000000000000AF
:10581000000000000000000000000000F83F181821
:105820000818040C040E0006000700038003800122
:10583000C001C000E0006000700030003820182077
:105840001C100C18FE1F00000000000000000000EB
:10585000000000000000C03F400040004000400049
:105860004000400040004000400040004000400038
:105870004000400040004000400040004000400028
:1058800040004000400040004000C03F00000000D9
:1058900000000000000000000000080018001800D0
:1058A000100030002000600060004000C000800058
:1058B00080018001000100030002000600060004D0
:1058C000000C000800180018001000300020000034
:1058D000000000000000FC030002000200020002C1
:1058E00000020002000200020002000200020002A8
:1058F0000002000200020002000200020002000298
:1059000000020002000200020002FC03000000008E
:105910000000000000008007C006200810100000F2
:105920000000000000000000000000000000000077
:105930000000000000000000000000000000000067
:105940000000000000000000000000000000000057
:105950000000000000000000000000000000000047
:105960000000000000000000000000000000000037
:105970000000000000000000000000000000000027
:105980000000000000000000000000000000FFFF19
:105990000000000000007800C000000100000000CE
:1059A00000000000000000000000000000000000F7
:1059B00000000000000000000000000000000000E7
:1059C00000000000000000000000000000000000D7
:1059D00000000000000000000000000000000000C7
:1059E00000000000000000000000F00318060C0C8E
:1059F0000C0C000C800F700C1C0C0C0C060C060C14
:105A0000064C0C4FF83800000000000000000000B9
:105A10000000000000000000000010001E00180040
:105A200018001800180018001800180FD81838307F
:105A300038601860186018601860186018601820C6
:105A400038307818C807000000000000000000008F
:105A50000000000000000000000000000000000046
:105A600000000000000000000000C007700C1818C3
:105A700018180C180C000C000C000C000C2018203E
:105A800018103008C00700000000000000000000EF
:105A9000000000000000000000000010001E0018C0
:105AA00000180018001800180018E01B301C181807
:105AB00018180C180C180C180C180C180C180818BE
:105AC000181C307AE009000000000000000000000F
:105AD00000000000000000000000000000000000C6
